{
  "contractName": "LandTransaction",
  "abi": [
    {
      "anonymous": false,
      "inputs": [
        {
          "indexed": true,
          "internalType": "address",
          "name": "buyer",
          "type": "address"
        },
        {
          "indexed": true,
          "internalType": "address",
          "name": "seller",
          "type": "address"
        },
        {
          "indexed": false,
          "internalType": "uint256",
          "name": "amount",
          "type": "uint256"
        },
        {
          "indexed": false,
          "internalType": "string",
          "name": "transactionId",
          "type": "string"
        }
      ],
      "name": "PaymentAttempt",
      "type": "event"
    },
    {
      "anonymous": false,
      "inputs": [
        {
          "indexed": true,
          "internalType": "address",
          "name": "buyer",
          "type": "address"
        },
        {
          "indexed": true,
          "internalType": "address",
          "name": "seller",
          "type": "address"
        },
        {
          "indexed": false,
          "internalType": "uint256",
          "name": "amount",
          "type": "uint256"
        },
        {
          "indexed": false,
          "internalType": "string",
          "name": "transactionId",
          "type": "string"
        }
      ],
      "name": "PaymentMade",
      "type": "event"
    },
    {
      "anonymous": false,
      "inputs": [
        {
          "indexed": false,
          "internalType": "bool",
          "name": "success",
          "type": "bool"
        },
        {
          "indexed": false,
          "internalType": "string",
          "name": "transactionId",
          "type": "string"
        }
      ],
      "name": "PaymentOutcome",
      "type": "event"
    },
    {
      "anonymous": false,
      "inputs": [
        {
          "indexed": true,
          "internalType": "string",
          "name": "transactionId",
          "type": "string"
        },
        {
          "indexed": false,
          "internalType": "string",
          "name": "buyerName",
          "type": "string"
        },
        {
          "indexed": false,
          "internalType": "string",
          "name": "buyerAddress",
          "type": "string"
        },
        {
          "indexed": false,
          "internalType": "string",
          "name": "sellerName",
          "type": "string"
        },
        {
          "indexed": false,
          "internalType": "string",
          "name": "sellerAddress",
          "type": "string"
        },
        {
          "indexed": false,
          "internalType": "uint256",
          "name": "area",
          "type": "uint256"
        },
        {
          "indexed": false,
          "internalType": "string",
          "name": "city",
          "type": "string"
        },
        {
          "indexed": false,
          "internalType": "string",
          "name": "state",
          "type": "string"
        },
        {
          "indexed": false,
          "internalType": "uint256",
          "name": "propertyId",
          "type": "uint256"
        },
        {
          "indexed": false,
          "internalType": "uint256",
          "name": "physicalSurveyNo",
          "type": "uint256"
        },
        {
          "indexed": false,
          "internalType": "uint256",
          "name": "price",
          "type": "uint256"
        },
        {
          "indexed": false,
          "internalType": "uint256",
          "name": "transactionDate",
          "type": "uint256"
        }
      ],
      "name": "TransactionCreated",
      "type": "event"
    },
    {
      "inputs": [
        {
          "internalType": "string",
          "name": "",
          "type": "string"
        }
      ],
      "name": "transactions",
      "outputs": [
        {
          "internalType": "string",
          "name": "buyerName",
          "type": "string"
        },
        {
          "internalType": "string",
          "name": "buyerAddress",
          "type": "string"
        },
        {
          "internalType": "string",
          "name": "sellerName",
          "type": "string"
        },
        {
          "internalType": "string",
          "name": "sellerAddress",
          "type": "string"
        },
        {
          "internalType": "uint256",
          "name": "area",
          "type": "uint256"
        },
        {
          "internalType": "string",
          "name": "city",
          "type": "string"
        },
        {
          "internalType": "string",
          "name": "state",
          "type": "string"
        },
        {
          "internalType": "uint256",
          "name": "propertyId",
          "type": "uint256"
        },
        {
          "internalType": "uint256",
          "name": "physicalSurveyNo",
          "type": "uint256"
        },
        {
          "internalType": "uint256",
          "name": "price",
          "type": "uint256"
        },
        {
          "internalType": "uint256",
          "name": "transactionDate",
          "type": "uint256"
        }
      ],
      "stateMutability": "view",
      "type": "function"
    },
    {
      "inputs": [
        {
          "internalType": "string",
          "name": "buyerName",
          "type": "string"
        },
        {
          "internalType": "string",
          "name": "buyerAddress",
          "type": "string"
        },
        {
          "internalType": "string",
          "name": "sellerName",
          "type": "string"
        },
        {
          "internalType": "string",
          "name": "sellerAddress",
          "type": "string"
        },
        {
          "internalType": "uint256",
          "name": "area",
          "type": "uint256"
        },
        {
          "internalType": "string",
          "name": "city",
          "type": "string"
        },
        {
          "internalType": "string",
          "name": "state",
          "type": "string"
        },
        {
          "internalType": "uint256",
          "name": "propertyId",
          "type": "uint256"
        },
        {
          "internalType": "uint256",
          "name": "physicalSurveyNo",
          "type": "uint256"
        },
        {
          "internalType": "address payable",
          "name": "seller",
          "type": "address"
        },
        {
          "internalType": "uint256",
          "name": "price",
          "type": "uint256"
        }
      ],
      "name": "makeTransaction",
      "outputs": [
        {
          "internalType": "string",
          "name": "",
          "type": "string"
        }
      ],
      "stateMutability": "payable",
      "type": "function"
    }
  ],
  "bytecode": "0x608060405234801561001057600080fd5b506112bc806100206000396000f3fe6080604052600436106100295760003560e01c8063022236f41461002e5780635489f4e514610075575b600080fd5b34801561003a57600080fd5b50610055600480360381019061005091906109cf565b6100a5565b60405161006c9b9a99989796959493929190610ed6565b60405180910390f35b61008f600480360381019061008a9190610a10565b610445565b60405161009c9190610eb4565b60405180910390f35b6000818051602081018201805184825260208301602085012081835280955050505050506000915090508060000180546100de9061116a565b80601f016020809104026020016040519081016040528092919081815260200182805461010a9061116a565b80156101575780601f1061012c57610100808354040283529160200191610157565b820191906000526020600020905b81548152906001019060200180831161013a57829003601f168201915b50505050509080600101805461016c9061116a565b80601f01602080910402602001604051908101604052809291908181526020018280546101989061116a565b80156101e55780601f106101ba576101008083540402835291602001916101e5565b820191906000526020600020905b8154815290600101906020018083116101c857829003601f168201915b5050505050908060020180546101fa9061116a565b80601f01602080910402602001604051908101604052809291908181526020018280546102269061116a565b80156102735780601f1061024857610100808354040283529160200191610273565b820191906000526020600020905b81548152906001019060200180831161025657829003601f168201915b5050505050908060030180546102889061116a565b80601f01602080910402602001604051908101604052809291908181526020018280546102b49061116a565b80156103015780601f106102d657610100808354040283529160200191610301565b820191906000526020600020905b8154815290600101906020018083116102e457829003601f168201915b50505050509080600401549080600501805461031c9061116a565b80601f01602080910402602001604051908101604052809291908181526020018280546103489061116a565b80156103955780601f1061036a57610100808354040283529160200191610395565b820191906000526020600020905b81548152906001019060200180831161037857829003601f168201915b5050505050908060060180546103aa9061116a565b80601f01602080910402602001604051908101604052809291908181526020018280546103d69061116a565b80156104235780601f106103f857610100808354040283529160200191610423565b820191906000526020600020905b81548152906001019060200180831161040657829003601f168201915b50505050509080600701549080600801549080600901549080600a015490508b565b6060813414610489576040517f08c379a000000000000000000000000000000000000000000000000000000000815260040161048090610fab565b60405180910390fd5b8273ffffffffffffffffffffffffffffffffffffffff163373ffffffffffffffffffffffffffffffffffffffff1614156104f8576040517f08c379a00000000000000000000000000000000000000000000000000000000081526004016104ef90610feb565b60405180910390fd5b6000423385886040516020016105119493929190610e15565b60405160208183030381529060405290506040518061016001604052808e81526020018d81526020018c81526020018b81526020018a81526020018981526020018881526020018781526020018681526020018481526020014281525060008260405161057e9190610de9565b908152602001604051809103902060008201518160000190805190602001906105a892919061089a565b5060208201518160010190805190602001906105c592919061089a565b5060408201518160020190805190602001906105e292919061089a565b5060608201518160030190805190602001906105ff92919061089a565b506080820151816004015560a082015181600501908051906020019061062692919061089a565b5060c082015181600601908051906020019061064392919061089a565b5060e082015181600701556101008201518160080155610120820151816009015561014082015181600a01559050508373ffffffffffffffffffffffffffffffffffffffff163373ffffffffffffffffffffffffffffffffffffffff167facbf5617a2744ac47e237f4c47503c3e10ea83668fa192c277ab8a76fa0845db85846040516106d192919061100b565b60405180910390a360008473ffffffffffffffffffffffffffffffffffffffff16846040516106ff90610e00565b60006040518083038185875af1925050503d806000811461073c576040519150601f19603f3d011682016040523d82523d6000602084013e610741565b606091505b505090507fd365fd3ddb24268004c47fa753ad6d98f042e89177de7a12735422fabb04b0548183604051610776929190610e84565b60405180910390a1806107be576040517f08c379a00000000000000000000000000000000000000000000000000000000081526004016107b590610fcb565b60405180910390fd5b816040516107cc9190610de9565b60405180910390207ff44401f88e16a1348756053060a1f040f76f20550587d95540b4f2ecf79c3b848f8f8f8f8f8f8f8f8f8e426040516108179b9a99989796959493929190610ed6565b60405180910390a28473ffffffffffffffffffffffffffffffffffffffff163373ffffffffffffffffffffffffffffffffffffffff167fbff0538a548e4ea8a217734a505ce9d9375306f438db1247603684e165834db8868560405161087e92919061100b565b60405180910390a381925050509b9a5050505050505050505050565b8280546108a69061116a565b90600052602060002090601f0160209004810192826108c8576000855561090f565b82601f106108e157805160ff191683800117855561090f565b8280016001018555821561090f579182015b8281111561090e5782518255916020019190600101906108f3565b5b50905061091c9190610920565b5090565b5b80821115610939576000816000905550600101610921565b5090565b600061095061094b8461106c565b61103b565b90508281526020810184848401111561096857600080fd5b610973848285611128565b509392505050565b60008135905061098a81611258565b92915050565b600082601f8301126109a157600080fd5b81356109b184826020860161093d565b91505092915050565b6000813590506109c98161126f565b92915050565b6000602082840312156109e157600080fd5b600082013567ffffffffffffffff8111156109fb57600080fd5b610a0784828501610990565b91505092915050565b60008060008060008060008060008060006101608c8e031215610a3257600080fd5b60008c013567ffffffffffffffff811115610a4c57600080fd5b610a588e828f01610990565b9b505060208c013567ffffffffffffffff811115610a7557600080fd5b610a818e828f01610990565b9a505060408c013567ffffffffffffffff811115610a9e57600080fd5b610aaa8e828f01610990565b99505060608c013567ffffffffffffffff811115610ac757600080fd5b610ad38e828f01610990565b9850506080610ae48e828f016109ba565b97505060a08c013567ffffffffffffffff811115610b0157600080fd5b610b0d8e828f01610990565b96505060c08c013567ffffffffffffffff811115610b2a57600080fd5b610b368e828f01610990565b95505060e0610b478e828f016109ba565b945050610100610b598e828f016109ba565b935050610120610b6b8e828f0161097b565b925050610140610b7d8e828f016109ba565b9150509295989b509295989b9093969950565b610ba1610b9c826110e0565b6111ae565b82525050565b610bb8610bb3826110ce565b61119c565b82525050565b610bc7816110f2565b82525050565b6000610bd88261109c565b610be281856110b2565b9350610bf2818560208601611137565b610bfb8161123a565b840191505092915050565b6000610c118261109c565b610c1b81856110c3565b9350610c2b818560208601611137565b80840191505092915050565b6000610c446029836110b2565b91507f5472616e73616374696f6e206d75737420696e636c756465207468652065786160008301527f63742070726963652e00000000000000000000000000000000000000000000006020830152604082019050919050565b6000610caa6034836110b2565b91507f5472616e73616374696f6e206661696c65642e205472616e7366657220746f2060008301527f73656c6c657220756e7375636365737366756c2e0000000000000000000000006020830152604082019050919050565b6000610d106024836110b2565b91507f427579657220616e642073656c6c65722063616e6e6f7420626520746865207360008301527f616d652e000000000000000000000000000000000000000000000000000000006020830152604082019050919050565b6000610d766000836110a7565b9150600082019050919050565b6000610d906001836110c3565b91507f2d000000000000000000000000000000000000000000000000000000000000006000830152600182019050919050565b610dcc8161111e565b82525050565b610de3610dde8261111e565b6111d2565b82525050565b6000610df58284610c06565b915081905092915050565b6000610e0b82610d69565b9150819050919050565b6000610e218287610dd2565b602082019150610e3082610d83565b9150610e3c8286610ba7565b601482019150610e4b82610d83565b9150610e578285610b90565b601482019150610e6682610d83565b9150610e728284610dd2565b60208201915081905095945050505050565b6000604082019050610e996000830185610bbe565b8181036020830152610eab8184610bcd565b90509392505050565b60006020820190508181036000830152610ece8184610bcd565b905092915050565b6000610160820190508181036000830152610ef1818e610bcd565b90508181036020830152610f05818d610bcd565b90508181036040830152610f19818c610bcd565b90508181036060830152610f2d818b610bcd565b9050610f3c608083018a610dc3565b81810360a0830152610f4e8189610bcd565b905081810360c0830152610f628188610bcd565b9050610f7160e0830187610dc3565b610f7f610100830186610dc3565b610f8d610120830185610dc3565b610f9b610140830184610dc3565b9c9b505050505050505050505050565b60006020820190508181036000830152610fc481610c37565b9050919050565b60006020820190508181036000830152610fe481610c9d565b9050919050565b6000602082019050818103600083015261100481610d03565b9050919050565b60006040820190506110206000830185610dc3565b81810360208301526110328184610bcd565b90509392505050565b6000604051905081810181811067ffffffffffffffff821117156110625761106161120b565b5b8060405250919050565b600067ffffffffffffffff8211156110875761108661120b565b5b601f19601f8301169050602081019050919050565b600081519050919050565b600081905092915050565b600082825260208201905092915050565b600081905092915050565b60006110d9826110fe565b9050919050565b60006110eb826110fe565b9050919050565b60008115159050919050565b600073ffffffffffffffffffffffffffffffffffffffff82169050919050565b6000819050919050565b82818337600083830152505050565b60005b8381101561115557808201518184015260208101905061113a565b83811115611164576000848401525b50505050565b6000600282049050600182168061118257607f821691505b60208210811415611196576111956111dc565b5b50919050565b60006111a7826111c0565b9050919050565b60006111b9826111c0565b9050919050565b60006111cb8261124b565b9050919050565b6000819050919050565b7f4e487b7100000000000000000000000000000000000000000000000000000000600052602260045260246000fd5b7f4e487b7100000000000000000000000000000000000000000000000000000000600052604160045260246000fd5b6000601f19601f8301169050919050565b60008160601b9050919050565b611261816110e0565b811461126c57600080fd5b50565b6112788161111e565b811461128357600080fd5b5056fea264697066735822122053928d67f92d0363ff6cf8f6c444bda886df5090058554ae7b4201bbfea38f6664736f6c63430008000033",
  "immutableReferences": {},
  "source": "// SPDX-License-Identifier: MIT\r\npragma solidity ^0.8.0;\r\n\r\ncontract LandTransaction {\r\n    struct Transaction {\r\n        string buyerName;\r\n        string buyerAddress;\r\n        string sellerName;\r\n        string sellerAddress;\r\n        uint256 area;\r\n        string city;\r\n        string state;\r\n        uint256 propertyId;\r\n        uint256 physicalSurveyNo;\r\n        uint256 price;               // Price in wei\r\n        uint256 transactionDate;     // Unix timestamp\r\n    }\r\n\r\n    mapping(string => Transaction) public transactions;\r\n\r\n    event TransactionCreated(\r\n        string indexed transactionId,\r\n        string buyerName,\r\n        string buyerAddress,\r\n        string sellerName,\r\n        string sellerAddress,\r\n        uint256 area,\r\n        string city,\r\n        string state,\r\n        uint256 propertyId,\r\n        uint256 physicalSurveyNo,\r\n        uint256 price,\r\n        uint256 transactionDate\r\n    );\r\n\r\n    event PaymentMade(\r\n        address indexed buyer,\r\n        address indexed seller,\r\n        uint256 amount,\r\n        string transactionId\r\n    );\r\n\r\n    event PaymentAttempt(\r\n        address indexed buyer,\r\n        address indexed seller,\r\n        uint256 amount,\r\n        string transactionId\r\n    );\r\n\r\n    event PaymentOutcome(\r\n        bool success,\r\n        string transactionId\r\n    );\r\n\r\n    function makeTransaction(\r\n        string memory buyerName,\r\n        string memory buyerAddress,\r\n        string memory sellerName,\r\n        string memory sellerAddress,\r\n        uint256 area,\r\n        string memory city,\r\n        string memory state,\r\n        uint256 propertyId,\r\n        uint256 physicalSurveyNo,\r\n        address payable seller,\r\n        uint256 price\r\n    ) public payable returns (string memory) {\r\n        require(msg.value == price, \"Transaction must include the exact price.\");\r\n        require(msg.sender != seller, \"Buyer and seller cannot be the same.\");\r\n        \r\n        string memory transactionId = string(abi.encodePacked(block.timestamp, \"-\", msg.sender, \"-\", seller, \"-\", propertyId));\r\n\r\n        transactions[transactionId] = Transaction({\r\n            buyerName: buyerName,\r\n            buyerAddress: buyerAddress,\r\n            sellerName: sellerName,\r\n            sellerAddress: sellerAddress,\r\n            area: area,\r\n            city: city,\r\n            state: state,\r\n            propertyId: propertyId,\r\n            physicalSurveyNo: physicalSurveyNo,\r\n            price: price,\r\n            transactionDate: block.timestamp\r\n        });\r\n\r\n        emit PaymentAttempt(msg.sender, seller, price, transactionId);\r\n        (bool success, ) = seller.call{value: price}(\"\");\r\n        emit PaymentOutcome(success, transactionId);\r\n\r\n        require(success, \"Transaction failed. Transfer to seller unsuccessful.\");\r\n\r\n        emit TransactionCreated(transactionId, buyerName, buyerAddress, sellerName, sellerAddress, area, city, state, propertyId, physicalSurveyNo, price, block.timestamp);\r\n        emit PaymentMade(msg.sender, seller, price, transactionId);\r\n\r\n        return transactionId;\r\n    }\r\n}",
  "sourcePath": "D:\\MohanWorkspace\\MyProject\\LandRegistration\\land-register-bc\\contracts\\Land.sol",
  "compiler": {
    "name": "solc",
    "version": "0.8.0+commit.c7dfd78e.Emscripten.clang"
  },
  "schemaVersion": "3.4.16",
  "updatedAt": "2024-11-21T13:04:40.447Z",
  "devdoc": {
    "kind": "dev",
    "methods": {},
    "version": 1
  },
  "userdoc": {
    "kind": "user",
    "methods": {},
    "version": 1
  }
}